{
  "_format": "hh-sol-artifact-1",
  "contractName": "Horse",
  "sourceName": "contracts/Animal.sol",
  "abi": [
    {
      "inputs": [
        {
          "internalType": "string",
          "name": "name",
          "type": "string"
        }
      ],
      "stateMutability": "nonpayable",
      "type": "constructor"
    },
    {
      "inputs": [
        {
          "internalType": "string",
          "name": "food",
          "type": "string"
        }
      ],
      "name": "eat",
      "outputs": [
        {
          "internalType": "string",
          "name": "",
          "type": "string"
        }
      ],
      "stateMutability": "pure",
      "type": "function"
    },
    {
      "inputs": [],
      "name": "getName",
      "outputs": [
        {
          "internalType": "string",
          "name": "",
          "type": "string"
        }
      ],
      "stateMutability": "view",
      "type": "function"
    },
    {
      "inputs": [],
      "name": "sleep",
      "outputs": [
        {
          "internalType": "string",
          "name": "",
          "type": "string"
        }
      ],
      "stateMutability": "pure",
      "type": "function"
    },
    {
      "inputs": [],
      "name": "speak",
      "outputs": [
        {
          "internalType": "string",
          "name": "",
          "type": "string"
        }
      ],
      "stateMutability": "pure",
      "type": "function"
    }
  ],
  "bytecode": "0x60806040523480156200001157600080fd5b5060405162000cd438038062000cd48339818101604052810190620000379190620001e5565b80806000908162000049919062000481565b50505062000568565b6000604051905090565b600080fd5b600080fd5b600080fd5b600080fd5b6000601f19601f8301169050919050565b7f4e487b7100000000000000000000000000000000000000000000000000000000600052604160045260246000fd5b620000bb8262000070565b810181811067ffffffffffffffff82111715620000dd57620000dc62000081565b5b80604052505050565b6000620000f262000052565b9050620001008282620000b0565b919050565b600067ffffffffffffffff82111562000123576200012262000081565b5b6200012e8262000070565b9050602081019050919050565b60005b838110156200015b5780820151818401526020810190506200013e565b60008484015250505050565b60006200017e620001788462000105565b620000e6565b9050828152602081018484840111156200019d576200019c6200006b565b5b620001aa8482856200013b565b509392505050565b600082601f830112620001ca57620001c962000066565b5b8151620001dc84826020860162000167565b91505092915050565b600060208284031215620001fe57620001fd6200005c565b5b600082015167ffffffffffffffff8111156200021f576200021e62000061565b5b6200022d84828501620001b2565b91505092915050565b600081519050919050565b7f4e487b7100000000000000000000000000000000000000000000000000000000600052602260045260246000fd5b600060028204905060018216806200028957607f821691505b6020821081036200029f576200029e62000241565b5b50919050565b60008190508160005260206000209050919050565b60006020601f8301049050919050565b600082821b905092915050565b600060088302620003097fffffffffffffffffffffffffffffffffffffffffffffffffffffffffffffffff82620002ca565b620003158683620002ca565b95508019841693508086168417925050509392505050565b6000819050919050565b6000819050919050565b6000620003626200035c62000356846200032d565b62000337565b6200032d565b9050919050565b6000819050919050565b6200037e8362000341565b620003966200038d8262000369565b848454620002d7565b825550505050565b600090565b620003ad6200039e565b620003ba81848462000373565b505050565b5b81811015620003e257620003d6600082620003a3565b600181019050620003c0565b5050565b601f8211156200043157620003fb81620002a5565b6200040684620002ba565b8101602085101562000416578190505b6200042e6200042585620002ba565b830182620003bf565b50505b505050565b600082821c905092915050565b6000620004566000198460080262000436565b1980831691505092915050565b600062000471838362000443565b9150826002028217905092915050565b6200048c8262000236565b67ffffffffffffffff811115620004a857620004a762000081565b5b620004b4825462000270565b620004c1828285620003e6565b600060209050601f831160018114620004f95760008415620004e4578287015190505b620004f0858262000463565b86555062000560565b601f1984166200050986620002a5565b60005b8281101562000533578489015182556001820191506020850194506020810190506200050c565b868310156200055357848901516200054f601f89168262000443565b8355505b6001600288020188555050505b505050505050565b61075c80620005786000396000f3fe608060405234801561001057600080fd5b506004361061004c5760003560e01c8063133a473e1461005157806317d7de7c1461006f57806350d853151461008d578063728d9b74146100ab575b600080fd5b6100596100db565b60405161006691906103a4565b60405180910390f35b610077610118565b60405161008491906103a4565b60405180910390f35b6100956101aa565b6040516100a291906103a4565b60405180910390f35b6100c560048036038101906100c0919061050f565b6101e7565b6040516100d291906103a4565b60405180910390f35b60606040518060400160405280600c81526020017f5a2d7a2d7a2d7a2d7a2e2e2e0000000000000000000000000000000000000000815250905090565b60606000805461012790610587565b80601f016020809104026020016040519081016040528092919081815260200182805461015390610587565b80156101a05780601f10610175576101008083540402835291602001916101a0565b820191906000526020600020905b81548152906001019060200180831161018357829003601f168201915b5050505050905090565b60606040518060400160405280600581526020017f49676f676f000000000000000000000000000000000000000000000000000000815250905090565b606073__$c275cf3821a96b1f7f94c86be9ecb044db$__633a96fdd7836040518060400160405280600581526020017f706c616e740000000000000000000000000000000000000000000000000000008152506040518363ffffffff1660e01b8152600401610257929190610602565b602060405180830381865af4158015610274573d6000803e3d6000fd5b505050506040513d601f19601f820116820180604052508101906102989190610671565b156102ad576102a6826102eb565b90506102e6565b6040518060400160405280601281526020017f43616e206f6e6c792065617420706c616e74000000000000000000000000000081525090505b919050565b6060816040516020016102fe9190610700565b6040516020818303038152906040529050919050565b600081519050919050565b600082825260208201905092915050565b60005b8381101561034e578082015181840152602081019050610333565b60008484015250505050565b6000601f19601f8301169050919050565b600061037682610314565b610380818561031f565b9350610390818560208601610330565b6103998161035a565b840191505092915050565b600060208201905081810360008301526103be818461036b565b905092915050565b6000604051905090565b600080fd5b600080fd5b600080fd5b600080fd5b7f4e487b7100000000000000000000000000000000000000000000000000000000600052604160045260246000fd5b61041c8261035a565b810181811067ffffffffffffffff8211171561043b5761043a6103e4565b5b80604052505050565b600061044e6103c6565b905061045a8282610413565b919050565b600067ffffffffffffffff82111561047a576104796103e4565b5b6104838261035a565b9050602081019050919050565b82818337600083830152505050565b60006104b26104ad8461045f565b610444565b9050828152602081018484840111156104ce576104cd6103df565b5b6104d9848285610490565b509392505050565b600082601f8301126104f6576104f56103da565b5b813561050684826020860161049f565b91505092915050565b600060208284031215610525576105246103d0565b5b600082013567ffffffffffffffff811115610543576105426103d5565b5b61054f848285016104e1565b91505092915050565b7f4e487b7100000000000000000000000000000000000000000000000000000000600052602260045260246000fd5b6000600282049050600182168061059f57607f821691505b6020821081036105b2576105b1610558565b5b50919050565b600082825260208201905092915050565b60006105d482610314565b6105de81856105b8565b93506105ee818560208601610330565b6105f78161035a565b840191505092915050565b6000604082019050818103600083015261061c81856105c9565b9050818103602083015261063081846105c9565b90509392505050565b60008115159050919050565b61064e81610639565b811461065957600080fd5b50565b60008151905061066b81610645565b92915050565b600060208284031215610687576106866103d0565b5b60006106958482850161065c565b91505092915050565b7f416e696d616c2065617473200000000000000000000000000000000000000000815250565b600081905092915050565b60006106da82610314565b6106e481856106c4565b93506106f4818560208601610330565b80840191505092915050565b600061070b8261069e565b600c8201915061071b82846106cf565b91508190509291505056fea2646970667358221220cac17e11ac12a6f9b447e0ad9018752c6eb44c526cd0fa541771defa423b997f64736f6c63430008130033",
  "linkReferences": {
    "contracts/StringComparer.sol": {
      "StringComparer": [
        {
          "length": 20,
          "start": 1891
        }
      ]
    }
  },
  "deployedLinkReferences": {
    "contracts/StringComparer.sol": {
      "StringComparer": [
        {
          "length": 20,
          "start": 491
        }
      ]
    }
  }
}