{
  "_format": "hh-sol-artifact-1",
  "contractName": "Wolf",
  "sourceName": "contracts/Animal.sol",
  "abi": [
    {
      "inputs": [
        {
          "internalType": "string",
          "name": "name",
          "type": "string"
        }
      ],
      "stateMutability": "nonpayable",
      "type": "constructor"
    },
    {
      "inputs": [
        {
          "internalType": "string",
          "name": "food",
          "type": "string"
        }
      ],
      "name": "eat",
      "outputs": [
        {
          "internalType": "string",
          "name": "",
          "type": "string"
        }
      ],
      "stateMutability": "pure",
      "type": "function"
    },
    {
      "inputs": [],
      "name": "getName",
      "outputs": [
        {
          "internalType": "string",
          "name": "",
          "type": "string"
        }
      ],
      "stateMutability": "view",
      "type": "function"
    },
    {
      "inputs": [],
      "name": "sleep",
      "outputs": [
        {
          "internalType": "string",
          "name": "",
          "type": "string"
        }
      ],
      "stateMutability": "pure",
      "type": "function"
    },
    {
      "inputs": [],
      "name": "speak",
      "outputs": [
        {
          "internalType": "string",
          "name": "",
          "type": "string"
        }
      ],
      "stateMutability": "pure",
      "type": "function"
    }
  ],
  "bytecode": "0x60806040523480156200001157600080fd5b5060405162000cd338038062000cd38339818101604052810190620000379190620001e5565b80806000908162000049919062000481565b50505062000568565b6000604051905090565b600080fd5b600080fd5b600080fd5b600080fd5b6000601f19601f8301169050919050565b7f4e487b7100000000000000000000000000000000000000000000000000000000600052604160045260246000fd5b620000bb8262000070565b810181811067ffffffffffffffff82111715620000dd57620000dc62000081565b5b80604052505050565b6000620000f262000052565b9050620001008282620000b0565b919050565b600067ffffffffffffffff82111562000123576200012262000081565b5b6200012e8262000070565b9050602081019050919050565b60005b838110156200015b5780820151818401526020810190506200013e565b60008484015250505050565b60006200017e620001788462000105565b620000e6565b9050828152602081018484840111156200019d576200019c6200006b565b5b620001aa8482856200013b565b509392505050565b600082601f830112620001ca57620001c962000066565b5b8151620001dc84826020860162000167565b91505092915050565b600060208284031215620001fe57620001fd6200005c565b5b600082015167ffffffffffffffff8111156200021f576200021e62000061565b5b6200022d84828501620001b2565b91505092915050565b600081519050919050565b7f4e487b7100000000000000000000000000000000000000000000000000000000600052602260045260246000fd5b600060028204905060018216806200028957607f821691505b6020821081036200029f576200029e62000241565b5b50919050565b60008190508160005260206000209050919050565b60006020601f8301049050919050565b600082821b905092915050565b600060088302620003097fffffffffffffffffffffffffffffffffffffffffffffffffffffffffffffffff82620002ca565b620003158683620002ca565b95508019841693508086168417925050509392505050565b6000819050919050565b6000819050919050565b6000620003626200035c62000356846200032d565b62000337565b6200032d565b9050919050565b6000819050919050565b6200037e8362000341565b620003966200038d8262000369565b848454620002d7565b825550505050565b600090565b620003ad6200039e565b620003ba81848462000373565b505050565b5b81811015620003e257620003d6600082620003a3565b600181019050620003c0565b5050565b601f8211156200043157620003fb81620002a5565b6200040684620002ba565b8101602085101562000416578190505b6200042e6200042585620002ba565b830182620003bf565b50505b505050565b600082821c905092915050565b6000620004566000198460080262000436565b1980831691505092915050565b600062000471838362000443565b9150826002028217905092915050565b6200048c8262000236565b67ffffffffffffffff811115620004a857620004a762000081565b5b620004b4825462000270565b620004c1828285620003e6565b600060209050601f831160018114620004f95760008415620004e4578287015190505b620004f0858262000463565b86555062000560565b601f1984166200050986620002a5565b60005b8281101562000533578489015182556001820191506020850194506020810190506200050c565b868310156200055357848901516200054f601f89168262000443565b8355505b6001600288020188555050505b505050505050565b61075b80620005786000396000f3fe608060405234801561001057600080fd5b506004361061004c5760003560e01c8063133a473e1461005157806317d7de7c1461006f57806350d853151461008d578063728d9b74146100ab575b600080fd5b6100596100db565b60405161006691906103a3565b60405180910390f35b610077610118565b60405161008491906103a3565b60405180910390f35b6100956101aa565b6040516100a291906103a3565b60405180910390f35b6100c560048036038101906100c0919061050e565b6101e7565b6040516100d291906103a3565b60405180910390f35b60606040518060400160405280600c81526020017f5a2d7a2d7a2d7a2d7a2e2e2e0000000000000000000000000000000000000000815250905090565b60606000805461012790610586565b80601f016020809104026020016040519081016040528092919081815260200182805461015390610586565b80156101a05780601f10610175576101008083540402835291602001916101a0565b820191906000526020600020905b81548152906001019060200180831161018357829003601f168201915b5050505050905090565b60606040518060400160405280600481526020017f41776f6f00000000000000000000000000000000000000000000000000000000815250905090565b606073__$c275cf3821a96b1f7f94c86be9ecb044db$__633a96fdd7836040518060400160405280600481526020017f6d656174000000000000000000000000000000000000000000000000000000008152506040518363ffffffff1660e01b8152600401610257929190610601565b602060405180830381865af4158015610274573d6000803e3d6000fd5b505050506040513d601f19601f820116820180604052508101906102989190610670565b6102d9576040518060400160405280601181526020017f43616e206f6e6c7920656174206d65617400000000000000000000000000000081525090506102e5565b6102e2826102ea565b90505b919050565b6060816040516020016102fd91906106ff565b6040516020818303038152906040529050919050565b600081519050919050565b600082825260208201905092915050565b60005b8381101561034d578082015181840152602081019050610332565b60008484015250505050565b6000601f19601f8301169050919050565b600061037582610313565b61037f818561031e565b935061038f81856020860161032f565b61039881610359565b840191505092915050565b600060208201905081810360008301526103bd818461036a565b905092915050565b6000604051905090565b600080fd5b600080fd5b600080fd5b600080fd5b7f4e487b7100000000000000000000000000000000000000000000000000000000600052604160045260246000fd5b61041b82610359565b810181811067ffffffffffffffff8211171561043a576104396103e3565b5b80604052505050565b600061044d6103c5565b90506104598282610412565b919050565b600067ffffffffffffffff821115610479576104786103e3565b5b61048282610359565b9050602081019050919050565b82818337600083830152505050565b60006104b16104ac8461045e565b610443565b9050828152602081018484840111156104cd576104cc6103de565b5b6104d884828561048f565b509392505050565b600082601f8301126104f5576104f46103d9565b5b813561050584826020860161049e565b91505092915050565b600060208284031215610524576105236103cf565b5b600082013567ffffffffffffffff811115610542576105416103d4565b5b61054e848285016104e0565b91505092915050565b7f4e487b7100000000000000000000000000000000000000000000000000000000600052602260045260246000fd5b6000600282049050600182168061059e57607f821691505b6020821081036105b1576105b0610557565b5b50919050565b600082825260208201905092915050565b60006105d382610313565b6105dd81856105b7565b93506105ed81856020860161032f565b6105f681610359565b840191505092915050565b6000604082019050818103600083015261061b81856105c8565b9050818103602083015261062f81846105c8565b90509392505050565b60008115159050919050565b61064d81610638565b811461065857600080fd5b50565b60008151905061066a81610644565b92915050565b600060208284031215610686576106856103cf565b5b60006106948482850161065b565b91505092915050565b7f416e696d616c2065617473200000000000000000000000000000000000000000815250565b600081905092915050565b60006106d982610313565b6106e381856106c3565b93506106f381856020860161032f565b80840191505092915050565b600061070a8261069d565b600c8201915061071a82846106ce565b91508190509291505056fea2646970667358221220267e64a9d95ed65e1dce61f37b3528da0091292805190df6c6221a5afa769a0464736f6c63430008130033",
  "linkReferences": {
    "contracts/StringComparer.sol": {
      "StringComparer": [
        {
          "length": 20,
          "start": 1891
        }
      ]
    }
  },
  "deployedLinkReferences": {
    "contracts/StringComparer.sol": {
      "StringComparer": [
        {
          "length": 20,
          "start": 491
        }
      ]
    }
  }
}